{
  "_format": "hh-sol-artifact-1",
  "contractName": "DonationPage",
  "sourceName": "contracts/DonationPage.sol",
  "abi": [
    {
      "inputs": [],
      "stateMutability": "nonpayable",
      "type": "constructor"
    },
    {
      "anonymous": false,
      "inputs": [
        {
          "indexed": false,
          "internalType": "address",
          "name": "_donorAddress",
          "type": "address"
        },
        {
          "indexed": false,
          "internalType": "uint256",
          "name": "_amount",
          "type": "uint256"
        },
        {
          "indexed": false,
          "internalType": "uint256",
          "name": "_timestamp",
          "type": "uint256"
        }
      ],
      "name": "Donated",
      "type": "event"
    },
    {
      "inputs": [],
      "name": "donate",
      "outputs": [],
      "stateMutability": "payable",
      "type": "function"
    },
    {
      "inputs": [
        {
          "internalType": "uint256",
          "name": "",
          "type": "uint256"
        }
      ],
      "name": "donors",
      "outputs": [
        {
          "internalType": "address",
          "name": "donorAddress",
          "type": "address"
        },
        {
          "internalType": "uint256",
          "name": "amount",
          "type": "uint256"
        },
        {
          "internalType": "uint256",
          "name": "timestamp",
          "type": "uint256"
        }
      ],
      "stateMutability": "view",
      "type": "function"
    },
    {
      "inputs": [],
      "name": "getAllDonors",
      "outputs": [
        {
          "components": [
            {
              "internalType": "address",
              "name": "donorAddress",
              "type": "address"
            },
            {
              "internalType": "uint256",
              "name": "amount",
              "type": "uint256"
            },
            {
              "internalType": "uint256",
              "name": "timestamp",
              "type": "uint256"
            }
          ],
          "internalType": "struct DonationPage.Donor[]",
          "name": "",
          "type": "tuple[]"
        }
      ],
      "stateMutability": "view",
      "type": "function"
    },
    {
      "inputs": [],
      "name": "getNumDonors",
      "outputs": [
        {
          "internalType": "uint256",
          "name": "",
          "type": "uint256"
        }
      ],
      "stateMutability": "view",
      "type": "function"
    },
    {
      "inputs": [],
      "name": "getOwnerOfContract",
      "outputs": [
        {
          "internalType": "address",
          "name": "",
          "type": "address"
        }
      ],
      "stateMutability": "view",
      "type": "function"
    },
    {
      "inputs": [],
      "name": "getTotalDonations",
      "outputs": [
        {
          "internalType": "uint256",
          "name": "",
          "type": "uint256"
        }
      ],
      "stateMutability": "view",
      "type": "function"
    },
    {
      "inputs": [],
      "name": "owner",
      "outputs": [
        {
          "internalType": "address",
          "name": "",
          "type": "address"
        }
      ],
      "stateMutability": "view",
      "type": "function"
    },
    {
      "inputs": [
        {
          "internalType": "address",
          "name": "",
          "type": "address"
        }
      ],
      "name": "totalDonations",
      "outputs": [
        {
          "internalType": "uint256",
          "name": "",
          "type": "uint256"
        }
      ],
      "stateMutability": "view",
      "type": "function"
    },
    {
      "inputs": [],
      "name": "withdrawFunds",
      "outputs": [],
      "stateMutability": "nonpayable",
      "type": "function"
    }
  ],
  "bytecode": "0x608060405234801561001057600080fd5b50336000806101000a81548173ffffffffffffffffffffffffffffffffffffffff021916908373ffffffffffffffffffffffffffffffffffffffff160217905550610d02806100606000396000f3fe6080604052600436106100865760003560e01c8063777c658f11610059578063777c658f146101495780638da5cb5b1461017457806398e36b041461019f578063b529af8d146101ca578063ed88c68e146101f557610086565b80631567802a1461008b57806324600fc3146100b65780634abfa163146100cd5780635a4c38a71461010c575b600080fd5b34801561009757600080fd5b506100a06101ff565b6040516100ad91906109dd565b60405180910390f35b3480156100c257600080fd5b506100cb610228565b005b3480156100d957600080fd5b506100f460048036038101906100ef919061087a565b61031f565b604051610103939291906109f8565b60405180910390f35b34801561011857600080fd5b50610133600480360381019061012e9190610851565b610379565b6040516101409190610a91565b60405180910390f35b34801561015557600080fd5b5061015e610391565b60405161016b9190610a91565b60405180910390f35b34801561018057600080fd5b5061018961047b565b60405161019691906109dd565b60405180910390f35b3480156101ab57600080fd5b506101b461049f565b6040516101c19190610a2f565b60405180910390f35b3480156101d657600080fd5b506101df610654565b6040516101ec9190610a91565b60405180910390f35b6101fd610661565b005b60008060009054906101000a900473ffffffffffffffffffffffffffffffffffffffff16905090565b60008054906101000a900473ffffffffffffffffffffffffffffffffffffffff1673ffffffffffffffffffffffffffffffffffffffff163373ffffffffffffffffffffffffffffffffffffffff16146102b6576040517f08c379a00000000000000000000000000000000000000000000000000000000081526004016102ad90610a51565b60405180910390fd5b60008054906101000a900473ffffffffffffffffffffffffffffffffffffffff1673ffffffffffffffffffffffffffffffffffffffff166108fc479081150290604051600060405180830381858888f1935050505015801561031c573d6000803e3d6000fd5b50565b6001818154811061032f57600080fd5b90600052602060002090600302016000915090508060000160009054906101000a900473ffffffffffffffffffffffffffffffffffffffff16908060010154908060020154905083565b60026020528060005260406000206000915090505481565b6000806000905060005b6001805490508110156104735760026000600183815481106103e6577f4e487b7100000000000000000000000000000000000000000000000000000000600052603260045260246000fd5b906000526020600020906003020160000160009054906101000a900473ffffffffffffffffffffffffffffffffffffffff1673ffffffffffffffffffffffffffffffffffffffff1673ffffffffffffffffffffffffffffffffffffffff168152602001908152602001600020548261045e9190610af6565b9150808061046b90610b88565b91505061039b565b508091505090565b60008054906101000a900473ffffffffffffffffffffffffffffffffffffffff1681565b6060600060018054905067ffffffffffffffff8111156104e8577f4e487b7100000000000000000000000000000000000000000000000000000000600052604160045260246000fd5b60405190808252806020026020018201604052801561052157816020015b61050e6107f0565b8152602001906001900390816105065790505b50905060005b60018054905081101561064c57600060018281548110610570577f4e487b7100000000000000000000000000000000000000000000000000000000600052603260045260246000fd5b90600052602060002090600302019050806040518060600160405290816000820160009054906101000a900473ffffffffffffffffffffffffffffffffffffffff1673ffffffffffffffffffffffffffffffffffffffff1673ffffffffffffffffffffffffffffffffffffffff1681526020016001820154815260200160028201548152505083838151811061062f577f4e487b7100000000000000000000000000000000000000000000000000000000600052603260045260246000fd5b6020026020010181905250508061064590610b88565b9050610527565b508091505090565b6000600180549050905090565b600034116106a4576040517f08c379a000000000000000000000000000000000000000000000000000000000815260040161069b90610a71565b60405180910390fd5b34600260003373ffffffffffffffffffffffffffffffffffffffff1673ffffffffffffffffffffffffffffffffffffffff16815260200190815260200160002060008282546106f39190610af6565b92505081905550600160405180606001604052803373ffffffffffffffffffffffffffffffffffffffff16815260200134815260200142815250908060018154018082558091505060019003906000526020600020906003020160009091909190915060008201518160000160006101000a81548173ffffffffffffffffffffffffffffffffffffffff021916908373ffffffffffffffffffffffffffffffffffffffff160217905550602082015181600101556040820151816002015550507f4928895ba6723e8e27b15f32e4c3054a1b6c7f8c03f133558d6fa42b3928d14c3334426040516107e6939291906109f8565b60405180910390a1565b6040518060600160405280600073ffffffffffffffffffffffffffffffffffffffff16815260200160008152602001600081525090565b60008135905061083681610c9e565b92915050565b60008135905061084b81610cb5565b92915050565b60006020828403121561086357600080fd5b600061087184828501610827565b91505092915050565b60006020828403121561088c57600080fd5b600061089a8482850161083c565b91505092915050565b60006108af838361097d565b60608301905092915050565b6108c481610b4c565b82525050565b6108d381610b4c565b82525050565b60006108e482610abc565b6108ee8185610ad4565b93506108f983610aac565b8060005b8381101561092a57815161091188826108a3565b975061091c83610ac7565b9250506001810190506108fd565b5085935050505092915050565b6000610944602a83610ae5565b915061094f82610c00565b604082019050919050565b6000610967602683610ae5565b915061097282610c4f565b604082019050919050565b60608201600082015161099360008501826108bb565b5060208201516109a660208501826109bf565b5060408201516109b960408501826109bf565b50505050565b6109c881610b7e565b82525050565b6109d781610b7e565b82525050565b60006020820190506109f260008301846108ca565b92915050565b6000606082019050610a0d60008301866108ca565b610a1a60208301856109ce565b610a2760408301846109ce565b949350505050565b60006020820190508181036000830152610a4981846108d9565b905092915050565b60006020820190508181036000830152610a6a81610937565b9050919050565b60006020820190508181036000830152610a8a8161095a565b9050919050565b6000602082019050610aa660008301846109ce565b92915050565b6000819050602082019050919050565b600081519050919050565b6000602082019050919050565b600082825260208201905092915050565b600082825260208201905092915050565b6000610b0182610b7e565b9150610b0c83610b7e565b9250827fffffffffffffffffffffffffffffffffffffffffffffffffffffffffffffffff03821115610b4157610b40610bd1565b5b828201905092915050565b6000610b5782610b5e565b9050919050565b600073ffffffffffffffffffffffffffffffffffffffff82169050919050565b6000819050919050565b6000610b9382610b7e565b91507fffffffffffffffffffffffffffffffffffffffffffffffffffffffffffffffff821415610bc657610bc5610bd1565b5b600182019050919050565b7f4e487b7100000000000000000000000000000000000000000000000000000000600052601160045260246000fd5b7f4f6e6c792074686520636f6e7472616374206f776e65722063616e207769746860008201527f647261772066756e647300000000000000000000000000000000000000000000602082015250565b7f446f6e6174696f6e20616d6f756e74206d75737420626520677265617465722060008201527f7468616e20300000000000000000000000000000000000000000000000000000602082015250565b610ca781610b4c565b8114610cb257600080fd5b50565b610cbe81610b7e565b8114610cc957600080fd5b5056fea26469706673582212209b9f5e0030f6d9651155a93c8fec2f59030d6933190246d6891996b7e3fbdc1264736f6c63430008010033",
  "linkReferences": {},
  "deployedLinkReferences": {}
}